:020000040800F2
:10000000600200206D010008710100087301000802
:100010007501000877010008790100080000000060
:100020000000000000000000000000007B0100084C
:100030007D010008000000007F0100088101000828
:100040008301000883010008830100088301000880
:100050008301000883010008830100088301000870
:100060008301000883010008830100088301000860
:100070008301000883010008830100088301000850
:100080008301000883010008830100088301000840
:100090008301000883010008830100088301000830
:1000A0008301000883010008830100088301000820
:1000B0008301000883010008830100088301000810
:1000C0008301000883010008830100088301000800
:1000D00083010008830100088301000883010008F0
:1000E00083010008830100088301000800F002F882
:1000F00000F02CF80AA090E8000C82448344AAF196
:100100000107DA4501D100F021F8AFF2090EBAE893
:100110000F0013F0010F18BFFB1A43F0010318473B
:10012000E0020000F0020000002300240025002669
:10013000103A28BF78C1FBD8520728BF30C148BF4A
:100140000B6070471FB51FBD10B510BD00F01DF945
:100150001146FFF7F7FF00F0AFF800F03BF903B4EA
:10016000FFF7F2FF03BC00F043F900000848004726
:10017000FEE7FEE7FEE7FEE7FEE7FEE7FEE7FEE757
:10018000FEE7FEE703480449024A044B70470000BB
:10019000ED000008600000206002002060000020E8
:1001A000002100208322384B1A601A46126822F47C
:1001B00080321A601A46126842F480321A6000BF18
:1001C000314A126802F40031401C6FF070429042D4
:1001D00001D20029F4D02C4A126802F40032002A1D
:1001E0004ED02A4A126842F01002284B1A601A4672
:1001F000126822F003021A601A46126842F00202E4
:100200001A60214A526843F6F0739A431E4B5A60B3
:100210001A46526842F480625A601A46526822F4C2
:1002200040325A601A46526842F480325A601A4686
:10023000526822F470125A601A46526842F4C01290
:100240005A601A46126842F080721A6000BF0E4A65
:10025000126802F00072002AF9D00B4A526822F0AC
:100260000302094B5A601A46526842F002025A6071
:1002700000BF054A526802F00C02082AF9D101E0D9
:1002800000BFFEE77047000000100240002002405F
:100290000FE04FF47A7108E04FF47A7201E0531ED8
:1002A0009AB2002AFBDC4B1E99B20029F4DC431EF3
:1002B00098B20028EDDC7047FFF772FF00F00EF8EF
:1002C0000BE0012000F045F80A20FFF7E1FF0020D5
:1002D00000F03FF80A20FFF7DBFFF2E730B52748D0
:1002E000274B9B6943F00803254CA3610022AAB168
:1002F000002111E002F001035BB103688D000F24BF
:10030000AC40A343036003688D000324AC40234347
:10031000036052104B1CD9B20829EBDBFF22AAB1B3
:10032000002111E002F001035BB143688D000F244E
:10033000AC40A343436043688D000324AC40234397
:10034000436052104B1CD9B20829EBDB0023C36079
:1003500030BD0A4918B14FF400420A6102E04FF47F
:1003600000424A61704701460448C26822F47F4255
:10037000C260C26842EA0122C2607047000C0140BC
:1003800000100240704770477047754600F02CF827
:10039000AE4605006946534620F00700854618B072
:1003A00020B5FFF7EFFEBDE820404FF000064FF00C
:1003B00000074FF000084FF0000B21F00701AC469A
:1003C000ACE8C009ACE8C009ACE8C009ACE8C009B9
:1003D0008D46704710B50446AFF300802046BDE857
:1003E0001040FFF7BCBE000000487047000000202E
:1003F00001491820ABBEFEE726000200704700004E
:10040000100400080000002060020000280100081D
:04000005080000ED02
:00000001FF
