:020000040800F2
:1000000080080020CD010008CF030008C3030008CA
:10001000CD0300086F0200080F0600080000000072
:10002000000000000000000000000000DD050008E6
:100030008B02000800000000F3030008DF05000841
:1000400011060008F1030008E1050008D3050008C7
:100050009B0200083D0500088D020008910200087F
:100060009302000895020008970200087502000834
:1000700077020008790200087B0200087D02000870
:100080007F020008810200086B0200080B060008CE
:100090000D060008710200087302000899020008AA
:1000A000E3050008E9050008E7050008E505000884
:1000B000EB050008ED050008EF050008C703000880
:1000C000C5030008CB030008C9030008D7050008D2
:1000D000D905000803060008050600080706000801
:1000E0008F020008D105000809060008F70500087E
:1000F000FD050008FB050008F90500086D02000871
:10010000CD020008D5050008F1050008DB05000850
:10011000FF05000801060008F3050008F5050008C2
:10012000830200088502000887020008890200088F
:1001300000F002F800F03AF80AA090E8000C8244BF
:100140008344AAF10107DA4501D100F02FF8AFF29C
:10015000090EBAE80F0013F0010F18BFFB1A43F0A5
:10016000010318479C060000BC060000103A24BF9B
:1001700078C878C1FAD8520724BF30C830C144BF0C
:1001800004680C607047000000230024002500264E
:10019000103A28BF78C1FBD8520728BF30C148BFEA
:1001A0000B6070471FB51FBD10B510BD00F023F8E0
:1001B0001146FFF7F7FF00F0EFFA00F041F803B443
:1001C000FFF7F2FF03BC00F049F8000003480047C6
:1001D00003480449044A054B7047000031010008F8
:1001E000800000208008002080040020800400207F
:1001F000704770477047754600F02CF8AE46050012
:100200006946534620F00700854618B020B5FFF731
:10021000DFFFBDE820404FF000064FF000074FF031
:1002200000084FF0000B21F00701AC46ACE8C00914
:10023000ACE8C009ACE8C009ACE8C0098D4670471D
:1002400010B50446AFF300802046BDE81040FFF72C
:10025000B6BF000000487047200000200149182068
:10026000ABBEFEE726000200704770477047FEE70E
:1002700070477047704770477047704770477047C6
:1002800070477047704770477047704770477047B6
:1002900070477047704770477047704704490A6855
:1002A00022F010020A600A6802430A6070470000E8
:1002B0000020024004490A6802F038020A600A6815
:1002C00002430A60704700000020024070470000AF
:1002D000F0B5CB780022DC0603F00F0301D58C7853
:1002E00023430C880F2714F0FF0F4FF0010C1CD094
:1002F000D0F800500E880CFA02F42640A64210D125
:10030000960007FA06FE25EA0E0E03FA06F5CE78E9
:1003100045EA0E05282E00D14461CE78482E00D142
:100320000461521C082AE5D305600A88FF2A1ED9F9
:100330004568002202F108060CFA06F40E882640F1
:10034000A64210D1960007FA06FE25EA0E0E03FA21
:1003500006F5CE7845EA0E05282E00D14461CE7808
:10036000482E00D10461521C082AE3D34560F0BD39
:10037000F0B5104D6B68440D260184B2C0F30157EF
:10038000B440C0F30342032F06D1686823F07062C3
:1003900020F07060686008E0C00203D50320904040
:1003A000834300E0A34343F0706201B122436A60DB
:1003B000F0BD000000000140806880B27047C1605D
:1003C0007047FEE77047704770477047FEE7704719
:1003D00000214FF0006000F001B80000024A114017
:1003E000014302480160704780FFFF1F08ED00E0F5
:1003F00070477047044A0029916901D0014300E029
:1004000081439161704700000010024010B500F078
:1004100033F84FF48034204600F076F800F0BEF850
:1004200014490128087023D11020FFF737FF02205C
:10043000FFF740FF002000F05DF8002000F08AF890
:10044000A01100F07DF84FF4E011204600F092F882
:10045000012000F089F8392000F02CF80028FAD0AB
:10046000022000F091F800BF00F03CF80828FBD112
:1004700010BD0000000000200B48016841F00101A0
:1004800001604168094A114041600168084A114011
:100490000160016821F4802101604268002122F49A
:1004A000FE02426081607047001002400000FFF8C9
:1004B000FFFFF6FE034600205909094A012901D130
:1004C000116804E0022901D1116A00E0516A03F0C9
:1004D0001F02012393400B4200D00120704700000F
:1004E000001002400248406800F00C007047000015
:1004F00000100240034A516821F0F00101435160AD
:1005000070470000001002400B490A6822F4803254
:100510000A600A68B0F5803F22F480220A6007D0A2
:10052000B0F5802F03D1086840F4A0200860704720
:10053000086840F48030F9E700100240704700007E
:10054000034A516821F4E0610143516070470000A3
:1005500000100240034A516821F4605141EAC00092
:100560005060704700100240014908667047000063
:1005700000004242034B5A68084322F47C121043A5
:100580005860704700100240034A516821F003018F
:1005900001435160704700000010024030B50B4C21
:1005A00040F2FF153120FFF785FF20706068401C86
:1005B0006060207810B96068A842F3D13120FFF75D
:1005C00079FF002800D0012030BD00001800002075
:1005D0007047704770477047704770477047704763
:1005E0007047704770477047704770477047704753
:1005F0007047704770477047704770477047704743
:100600007047704770477047704770477047FEE704
:10061000704704E00021491CC9B27D29FBD3401E6C
:10062000C0B2F7D27047000070B5144C4FF4706040
:10063000134E20801020E0700325A570214630461F
:10064000FFF746FE4FF4704020800420E070A57054
:1006500021463046FFF73CFE4FF2FF013046FFF7E0
:10066000AEFE3046FFF7A8FEF021B1EB202F03D0FD
:10067000BDE8704000F006B870BD00000400002026
:10068000000C01402DE9F05F414C0020251DA070B9
:100690004FF47069A5F800901027DFF8F8A0EF700C
:1006A0000326AE70211D5046FFF712FE4FF4704B2B
:1006B000A5F800B04FF0040885F80380AE70211D46
:1006C0005046FFF705FE4FF2FF015046FFF777FE59
:1006D0000120FFF79EFF5046FFF76EFEF02101EA72
:1006E000102041EA1010C043C0B2A07001283BD0D6
:1006F000022839D0042839D0082839D084F803706A
:10070000A5F80090224985F80380AE70091D504677
:10071000FFF7DEFDA5F800B01D49EF70AE70091DB2
:100720005046FFF7D5FD40F6FF715046FFF747FEF4
:100730000120FFF76EFF5046FFF73EFEC0F3032097
:1007400040F0F000C043C0B2A070012813D00228CE
:1007500013D0042814D0082815D0E770E07800F0F2
:100760000F006070BDE8F09FE070C9E7E670C7E772
:1007700084F80380C4E7E07807E0E078001D04E037
:10078000E078083001E0E0780C30E070E6E7000047
:1007900000000020000C0140FFF738FEFFF718FEB4
:1007A00001210D20FFF726FE01211248FFF7E0FD91
:1007B00011484FF6FF7510210580C170032181702B
:1007C0000E4C01462046FFF783FD29462046FFF7E1
:1007D000F6FD094D2D1F05F1080600BFFFF724FFA8
:1007E000687800F00F00305C00F07F012046FFF7D2
:1007F000E6FDF3E70004300004000020000801409B
:100800002008000800000020200000006C01000803
:10081000400800082000002060080000880100084F
:100820000000000000000000C0F9A4B0999282F816
:1008300080908883C6A1868E000000000000000022
:0400000508000131BD
:00000001FF
